:020000040800F2
:100000008006002001010008A71E0008891C0008C6
:10001000A51E000805080008A5260008000000002D
:100020000000000000000000000000000B2300089A
:10003000A50E000800000000532200080D23000850
:100040001B0100081B0100081B0100081B01000820
:100050001B0100081B0100081B0100081B01000810
:100060001B0100081B0100081B0100081B01000800
:100070001B0100081B0100081B0100081B010008F0
:100080001B0100081B0100081B0100081B010008E0
:100090001B0100081B0100081B0100081B010008D0
:1000A0001B0100081B0100081B0100081B010008C0
:1000B0001B0100081B0100081B0100081B010008B0
:1000C0001B0100081B0100081B0100081B010008A0
:1000D0001B010008612600081B0100081B01000825
:1000E0001B0100081B0100081B010008DFF80CD0F1
:1000F00000F0FAFA004800471528000880060020A2
:100100000648804706480047FEE7FEE7FEE7FEE7B1
:10011000FEE7FEE7FEE7FEE7FEE7FEE781230008D5
:10012000ED000008202A04DB203A21FA02F0002129
:10013000704721FA02F3D040C2F1200291400843F7
:100140001946704740EA01039B0703D009E008C93C
:10015000121F08C0042AFAD203E011F8013B00F88C
:10016000013B521EF9D270472DE9FE4F804681EACD
:100170000300C00F0C46009021F0004123F0004521
:10018000B8EB0200A94105D24046214690461C46E4
:100190000B46024623F00040104347D0270DC7F31B
:1001A0000A00C3F30A510290401A019040286BDA0A
:1001B000C3F3130040F4801B0098924620B1002343
:1001C000D2EB030A63EB0B0B01985946C0F14002D6
:1001D000504600F0B3F806460D4650465946019A7F
:1001E00000F0BBF810EB08006141002487EA1152CF
:1001F00084EAE7731A4340D0009A62B3019A012A55
:100200004FEA075215DC001B61EB02014FF0004280
:1002100002EA0752CDE90042001C41F58011324646
:100220002B4600F0F2F803B0BDE8F08F40462146BF
:10023000F9E7001B61EB0201001C41F58013001877
:100240005B412018A2F5001747EB030140EAD57087
:10025000B6196D4111E06D084FEA360645EAC075E2
:100260004FEA0752001B61EB0201001C41F58011AF
:1002700049084FEA30000019514132462B4603B07D
:10028000BDE8F04F00F0B2B8009801224000002312
:10029000D0EB020263EBE073009821464FEAE07472
:1002A000B8EB000061EB0401E9E783F000435BE792
:1002B00081F0004158E720F00040C10DC0F3160066
:1002C00040F400007F2901DA00207047962903DC02
:1002D000C1F19601C840704796398840704700F0D8
:1002E000004230F000400AD0C10D01F56071C0F34A
:1002F000160042EA0151C20840071143704700202E
:100300000146704701F0004330B421F0004150EA4B
:10031000010206D00A0DA2F56072C1F31301002A92
:1003200002DC30BC00207047440F44EAC104C10025
:10033000E01830BC00EBC25000F021B8202A04DBEA
:10034000203A00FA02F1002070479140C2F12003E8
:1003500020FA03F3194390407047202A06DBCB179D
:10036000203A41FA02F043EAE07306E041FA02F370
:10037000D040C2F12002914008431946704700293D
:10038000A8BF7047401C490008BF20F0010070471B
:1003900010B4B0FA80FC00FA0CF050EA010404BF7B
:1003A00010BC704749B1CCF1200421FA04F411FAD1
:1003B0000CF118BF012121430843A3EB0C01CB1D15
:1003C0004FEA00614FEA102042BF002010BC704786
:1003D00000EBC35010440029A4BF10BC7047401C60
:1003E000490008BF20F0010010BC704710B5141E72
:1003F00073F1000408DA401C41F1000192185B41DE
:100400001A4301D120F0010010BD2DE9F04D9246B4
:100410009B4611B1B1FA81F202E0B0FA80F22032CB
:100420009046FFF78BFF04460F4640EA0A0041EA78
:100430000B0153465A46084313D0114653EA0100B4
:1004400019D0C8F140025046FFF76CFE05460E4633
:10045000504659464246FFF771FF084305D0012038
:1004600004E020463946BDE8F08D0020054346EA09
:10047000E0762C4337430A986305E40AA0EB0800B2
:100480000022FD0A44EA47540A3002D50020014602
:10049000E9E7010510196941DDE9084500196941DD
:1004A000BDE8F04DA2E72DE9FE4F81EA030404F018
:1004B000004421F0004100944FF0000B23F0004372
:1004C00050EA01045ED052EA03045BD0C3F30A543D
:1004D000C1F30A552C44A4F2F3340194A0FB025456
:1004E000C1F3130141F48011C3F3130343F48013E8
:1004F00001FB024400FB034E840A970A44EA81543C
:1005000047EA8357A4FB076802958D0A05FB078518
:100510004FEA932C04FB0C542705029D4FEA065822
:1005200047EA1637B5EB08056EEB070C870E920EFF
:1005300047EA811742EA8312A7FB0201B6EB0B01DF
:1005400064EB00042B0D43EA0C335E1844EB1C50A3
:10055000DA465146E7FB0201C5F313044FEA0B33B9
:1005600043EA14534FEA0432019C43EA0603A4F120
:100570000C040294009CCDE900B4FFF746FF03B0E1
:10058000BDE8F08F00200146F9E72DE9F04D81EA42
:10059000030404F0004B21F0004514464FF0000A1C
:1005A00023F0004150EA050220D054EA01021DD098
:1005B000C5F30A570246C5F31303C1F31300C1F391
:1005C0000A5640F4801543F48013A7EB0608101B6D
:1005D000D64608F2FD3873EB050002D308F1010896
:1005E00001E092185B41B8F1000F03DA00200146E8
:1005F000BDE8F08D00204FF48011064684460EE0E1
:10060000171B73EB050705D3121B63EB05030643AA
:100610004CEA010C49084FEA300092185B4150EA5D
:100620000107EDD152EA030012D082EA040083EA06
:100630000501084305D0101BAB4106D2012200235F
:1006400006E000224FF0004302E06FF00102531079
:100650001AEB06004CEB085110EB0A0041EB0B01C2
:10066000BDE8F04DFFF7C2BE70B521F00043034373
:100670000CD0C1F30A550024D5EB040564EB040348
:10068000D617AD1AB34102DB0020014670BD201819
:1006900041EB025170BD0EB5C10F80EAE070084415
:1006A000CA07002140F233438DE80E000A460B468C
:1006B000FFF7ABFE03B000BD30B5041E71F10004BE
:1006C00004DB4FF00044404264EB0101141E73F15F
:1006D000000405DB1C464FF00043524263EB040369
:1006E000994208BF904230BD064C074D06E0E068D5
:1006F00040F0010394E8070098471034AC42F6D369
:10070000FFF7F8FCB83A0008D83A00082DE9F04D98
:1007100000231A461B1A8A4103DB00200146BDE86C
:10072000F08DC1F30A52C1F3130141F480154FF06B
:10073000000BD10702D100186D41521E002704465C
:1007400040F2FF11384601EB620A3E4680460246FF
:1007500000204FF48011FFF7E5FCC2197141BB186E
:1007600046EB0100B4EB030C75EB000C04D3E41A68
:1007700065EB000517460E46241908F101006D418E
:1007800080463428E3DDF91946EB0600091BA84131
:1007900003D24FF0FF32134601E0002213461BEB59
:1007A000070046EB0A51BDE8F04DFFF71FBE70B5DC
:1007B0008C1810F8015B15F0070301D110F8013B0C
:1007C0002A1106D110F8012B03E010F8016B01F893
:1007D000016B5B1EF9D12B0705D40023521E0DD4EB
:1007E00001F8013BFAE710F8013BCB1A921C03E039
:1007F00013F8015B01F8015B521EF9D5A142D8D371
:10080000002070BDFEE7000070B500240F4E2546A5
:100810002021304600F072FC0028F9D03C2001F085
:10082000F1FF6006040E2021304600F067FC01282D
:1008300001D1641CE4B22021304600F05FFC0028A6
:10084000F9D16D1C082DE3DB204670BD000C014082
:100850002DE9F05F00F008FB01F018FAF84C2021B8
:10086000204600F04BFC00287CD12021204600F0DF
:1008700045FC0028F9D02021204600F03FFC00284C
:10088000F9D1FFF7C1FF8046FFF7BEFF0746FFF72C
:10089000BBFF0646FFF7B8FF0546FFF7B5FFE94C7B
:1008A0005FEAC8704FF07E5A4FF0804902D0C4F81A
:1008B00004A007E0002213461046494602F098F8CB
:1008C000002060605FEA887007D56068FFF707FD69
:1008D00000224B46FFF748FC08E00022DA4B1046A6
:1008E000494602F085F86068FFF7F9FCFFF70AFD5A
:1008F00060605FEA487007D56068FFF7F0FC00228F
:10090000D24BFFF731FC08E0002249464B46104627
:1009100002F06EF86068FFF7E2FCFFF7F3FC60603E
:100920005FEA087007D56068FFF7D9FC0022C84B62
:10093000FFF71AFC08E00022C64B1046494602F0B9
:1009400057F86068FFF7CBFCFFF7DCFC60605FEAFC
:10095000C86008D56068FFF7C2FC0022BE4BFFF7F5
:1009600003FC09E06BE20022B84B1046494602F056
:100970003FF86068FFF7B3FCFFF7C4FC60605FEA14
:10098000886007D56068FFF7AAFC0022B34BFFF729
:10099000EBFB08E00022B24B1046494602F028F873
:1009A0006068FFF79CFCFFF7ADFC6060DFF8B4B255
:1009B0005FEA486007D56068FFF791FC0022AA4B08
:1009C000FFF7D2FB08E000225B461046494602F0E2
:1009D0000FF86068FFF783FCFFF794FC60605FEA44
:1009E0000860DFF8888207D56068FFF778FC00228E
:1009F0004346FFF7B9FB08E000229D4B10464946ED
:100A000001F0F6FF6068FFF76AFCFFF77BFC6060AF
:100A1000F00702D0C4F800A007E0002213461046F9
:100A2000494601F0E5FF00202060B00707D52068A7
:100A3000FFF755FC00224B46FFF796FB08E000222B
:100A4000814B1046494601F0D3FF2068FFF747FC71
:100A5000FFF758FC2060700707D52068FFF73FFCC0
:100A600000227A4BFFF780FB08E0002249464B4604
:100A7000104601F0BDFF2068FFF731FCFFF742FC94
:100A80002060300707D52068FFF729FC0022704B53
:100A9000FFF76AFB08E000226E4B1046494601F062
:100AA000A7FF2068FFF71BFCFFF72CFC2060F00677
:100AB00007D52068FFF713FC0022674BFFF754FBB4
:100AC00008E00022614B1046494601F091FF206882
:100AD000FFF705FCFFF716FC2060B00607D520687D
:100AE000FFF7FDFB00225D4BFFF73EFB08E0002215
:100AF0005B4B1046494601F07BFF2068FFF7EFFB98
:100B0000FFF700FC2060700607D52068FFF7E7FBC1
:100B10000022554BFFF728FB08E000225B461046F9
:100B2000494601F065FF2068FFF7D9FBFFF7EAFBB4
:100B30002060300607D52068FFF7D1FB002243462E
:100B4000FFF712FB08E00022494B1046494601F02E
:100B50004FFF2068FFF7C3FBFFF7D4FB2060F807C7
:100B600002D0C4F80CA007E0002213461046494604
:100B700001F03EFF0020E060B80708D54E46E0686F
:100B8000FFF7ADFB00223346FFF7EEFA08E0002244
:100B90002D4B1046494601F02BFFE068FFF79FFB05
:100BA000FFF7B0FBE060780707D5E068FFF797FB39
:100BB0000022264BFFF7D8FA08E0002249464B46B0
:100BC000104601F015FFE068FFF789FBFFF79AFB7D
:100BD000E060380707D5E068FFF781FB00221C4B77
:100BE000FFF7C2FA08E000221A4B1046494601F00E
:100BF000FFFEE068FFF773FBFFF784FBE060F80699
:100C000007D5E068FFF76BFB0022134BFFF7ACFA48
:100C100008E000220D4B1046494601F0E9FEE0686D
:100C2000FFF75DFBFFF76EFBE060B80622D5E068DA
:100C3000FFF755FB0022094BFFF796FA23E000006F
:100C4000000C0140000000200000F03F00001040B8
:100C500000002040000008400000304000004040FC
:100C600000001440000018400000504000006040A8
:100C700000001C400022734B1046494601F0B8FEAC
:100C8000E068FFF72CFBFFF73DFBE060780607D537
:100C9000E068FFF724FB00226B4BFFF765FA08E0E2
:100CA00000225B461046494601F0A2FEE068FFF7CD
:100CB00016FBFFF727FBE060380607D5E068FFF773
:100CC0000EFB00224346FFF74FFA08E000225F4B7D
:100CD0001046494601F08CFEE068FFF700FBFFF785
:100CE00011FBE060E80702D0C4F808A007E000228A
:100CF00013461046494601F07BFE0020A060A8077D
:100D000008D54E46A068FFF7EAFA00223346FFF7FF
:100D10002BFA08E000224E4B1046494601F068FECF
:100D2000A068FFF7DCFAFFF7EDFAA060680707D5C7
:100D3000A068FFF7D4FA0022464BFFF715FA08E047
:100D4000002249464B46104601F052FEA068FFF7CC
:100D5000C6FAFFF7D7FAA060280707D5A068FFF703
:100D6000BEFA00223C4BFFF7FFF908E000223B4BA4
:100D70001046494601F03CFEA068FFF7B0FAFFF7C5
:100D8000C1FAA060E80607D5A068FFF7A8FA00221C
:100D9000334BFFF7E9F908E000222E4B1046494695
:100DA00001F026FEA068FFF79AFAFFF7ABFAA06001
:100DB000A80607D5A068FFF792FA0022294BFFF793
:100DC000D3F908E000221F4B1046494601F010FEFF
:100DD000A068FFF784FAFFF795FAA060680607D5C8
:100DE000A068FFF77CFA0022174BFFF7BDF908E077
:100DF00000225B461046494601F0FAFDA068FFF765
:100E00006EFAFFF77FFAA060280607D5A068FFF703
:100E100066FA00224346FFF7A7F908E000220B4BD1
:100E20001046494601F0E4FDA068FFF758FAFFF7C5
:100E300069FAA060BDE8F05F192001F0E3BCBDE8ED
:100E4000F09F0000000014400000504000001C40D3
:100E50000000F03F0000104000002040000008406B
:100E6000000030400000404010B500F083FF0A2031
:100E700001F0C8FC00F0A0FF142001F0B5FC00F068
:100E800079FFBDE81040282001F0BCBC08B5642300
:100E90008DF8000001226946014800F0EBFC08BD16
:100EA000E80100207047000010B590F821100024E0
:100EB000022903D00421816301243DE001680A680E
:100EC00022F00E020A6001680A6822F001020A603C
:100ED0001A4A0168914201D1012121E0174A1432D6
:100EE000914201D110211BE0144A2832914201D1D4
:100EF000891515E0114A3C32914201D189140FE065
:100F00000E4A5032914202D14FF4803108E00B4A30
:100F10006432914202D14FF4801101E04FF08071B0
:100F2000064A083A5160012180F82110002180F81A
:100F30002010416B01B18847204610BD08000240D7
:100F40002DE9F84FDFF890A100220AF1040B1446B6
:100F500001274FF00F090BF1040E00BF0B6807FAD1
:100F600004F52B40AB4274D1DFF870C14E68A6EB9C
:100F70000C0866452BD00DDC032E34D005DC36B3CF
:100F8000012E19D0022E2FD11BE0112E16D0122EB9
:100F90002AD119E0B8F5881F19D006DCB8F5803FD2
:100FA00015D0B8F5801F1FD111E0B8F5001F0ED085
:100FB000B8F5041F18D10AE0CA6815E0CA68121D06
:100FC00012E0CA6808320FE0CA680C320CE08A6886
:100FD0002AB1012A4FF0080203D0456104E004223F
:100FE00002E0056100E00022FF2B01D8064601E087
:100FF00000F104064FEA840501D9A5F12005D6F8D1
:1010000000C009FA05F82CEA080C02FA05F54CEACA
:10101000050CC6F800C04D68ED0057D5304DAE69DF
:1010200046F00106AE61AD6924F0030605F0010546
:1010300000952C4D06EB050CDCF80850A6074FEA8E
:10104000167809FA08F6B543274EB04202D10026B9
:1010500010E03BE0254EB04201D101260AE0244ECB
:10106000B04201D1022605E0224EB04201D1032652
:1010700000E0042606FA08F62E43CCF808604D6816
:10108000DAF80060ED03554601D51E4300E09E43AB
:101090002E604D68DBF80060AD035D4601D51E4350
:1010A00000E09E432E604D68DEF80060ED0275465C
:1010B00001D51E4300E09E432E604D68AD020E4DEB
:1010C0002E6801D51E4300E09E432E60641C102C48
:1010D000FFF444AFBDE8F88F000401400000111098
:1010E000001002400000014000080140000C0140D7
:1010F00000100140001401400C04014080680840C9
:1011000000D0012070470AB1016170470904FBE774
:101110000148806870470000D401002002488168BF
:101120000278114481607047D4010020074810B54F
:10113000016841F010010160032000F09DF80020DB
:1011400000F006F800F024F8002010BD0020024056
:1011500070B50D4D04464FF47A712878B1FBF0F06C
:101160000A490968B1FBF0F000F045FC48B9102CC1
:1011700007D200222146501E00F05EF800206C606D
:1011800070BD012070BD0000D4010020E0010020EE
:10119000214808B5816941F001018161816901F04F
:1011A00001010091C16941F08051C161C06900F045
:1011B00080500090032000F05FF8002211466FF08D
:1011C0000B0000F039F8002211466FF00A0000F021
:1011D00033F8002211466FF0090000F02DF80022CC
:1011E0001146501F00F028F800221146101F00F091
:1011F00023F800221146901E00F01EF8002211462E
:10120000501E00F019F80548416821F0E06141F0F6
:101210000071416008BD0000001002400000014064
:1012200000F01F02012191404009800000F1E02000
:10123000C0F8001170470000F0B40E4B1B680C465C
:10124000C3F30223C3F10705042D00D90425191D9A
:10125000072901D2002300E0DB1E012606FA05F172
:10126000491E214099409E40761E16403143F0BCF5
:1012700000F01ABE0CED00E0064900F00702086815
:101280004FF6FF03184040EA0220034A104308606B
:10129000704700000CED00E00000FA052DE9F04772
:1012A000DFF83C8105460E46D8F8000000F0070044
:1012B000B0420CD2D8F8001021F007013143C8F831
:1012C0000010D8F8000000F00700B04263D1287881
:1012D000444C800705D56068A96820F0F0000843F9
:1012E00060602878C00745D06868012816D021685A
:1012F000022816D0890700294DDA616821F0030120
:1013000001436160FFF704FF6968074641F28830D6
:1013100001290FD00229814619D027E021688903CD
:10132000E9E78901E7E700BFFFF7F2FEC11B494586
:1013300001D918E081466068C0F381000128F3D12B
:1013400018E000BFFFF7E4FEC11B49450BD86068F9
:10135000C0F381000228F5D10CE000BFFFF7D8FEF2
:10136000C11B494502D90320BDE8F087606810F031
:101370000C0FF3D1D8F80010404601F00701B1423C
:101380000BD9016821F0070131430160006800F0CA
:101390000700B04201D00120E6E72878400705D5D4
:1013A0006068E96820F4E06008436060287800071E
:1013B00006D56068296920F4605040EAC100606089
:1013C00000F03CF86168084AC1F30311515CC84061
:1013D000064908600020FFF7BBFE0020C4E70000BC
:1013E0000020024000100240103A0008E0010020F6
:1013F0000148006870470000E001002004480549EA
:1014000000684968044AC1F30221515CC840704732
:10141000E001002000100240203A0008044805497D
:1014200000684968044AC1F3C221515CC840704752
:10143000E001002000100240203A000812A185B00F
:101440000FC98DE80F0014A0144A00680490516879
:10145000134801F00C03042B10D0082B0ED1C1F35C
:101460008343C9031DF803000AD5516804AAC1F3D8
:101470004041515C0A4A5043B0FBF1F005B070475F
:1014800008494843FAE70000020304050607080973
:101490000A0B0C0D0E0F101001020000001002408C
:1014A00000127A0000093D002DE9F84F044600784B
:1014B000B94DC00748D06868C0F38100012807D043
:1014C0006868C0F38100022809D16868C00306D5A6
:1014D0002868800338D5606800286FD034E06068E1
:1014E000B0F5803F0BD010B1B0F5A02F11D0286817
:1014F00020F480302860286820F4802002E02868EA
:1015000040F480302860606888B1FFF701FE06462D
:1015100009E0286840F480202860F0E7FFF7F8FD34
:10152000801B642875D828688003F7D50CE0FFF786
:10153000EFFD064605E000BFFFF7EAFD801B6428CB
:10154000F0D828688003F7D42078944E80074FF0B5
:1015500001094FF000083BD5686810F00C0F07D068
:101560006868C0F38100022809D16868C00306D406
:101570002868800714D5206901281FD110E0206950
:10158000B0B1C6F80090FFF7C3FD074605E000BF05
:10159000FFF7BEFDC01B0228C4D828688007F7D516
:1015A0002868616920F0F80040EAC10028600FE077
:1015B000C6F80080FFF7ACFD074606E0E9E000BF93
:1015C000FFF7A6FDC01B022823D828688007F7D4A0
:1015D000207800072CD57248A169D9B1C0F80090D5
:1015E000FFF796FD074604E0FFF792FDC01B0228B7
:1015F0000FD8686A8007F7D56A484FF4FA51006837
:10160000B0FBF1F0009000BF0098411E0091FAD2AB
:101610000EE080E0C0F80080FFF77AFD074604E0A6
:10162000FFF776FDC01B022875D8686A8007F7D4DB
:101630002078400760D5E8690027C00008D4E86931
:1016400040F08050E861E869012700F08050009088
:1016500055480168C90513D40168834641F4807177
:101660000160FFF755FD824606E000BFFFF750FD21
:10167000A0EB0A0064284ED8DBF80000C005F5D5C1
:10168000E06801280AD008B1052813D0286A20F0A4
:1016900001002862286A20F0040002E0286A40F075
:1016A00001002862E06841F2883B98B1FFF730FD05
:1016B00082460BE0286A40F004002862EEE700BF93
:1016C000FFF726FDA0EB0A0159455AD8286A800782
:1016D000F6D50CE0FFF71CFD824605E0FFF718FD8C
:1016E000A0EB0A0159454CD8286A8007F6D41FB1EF
:1016F000E86920F08050E861E06988B36968C1F367
:101700008101022945D00228C6F8608004D0FFF785
:10171000FFFC044638E034E0FFF7FAFC074604E03B
:10172000FFF7F6FCC01B02282BD828688001F7D4ED
:10173000206AB0F5803F05D16868A16820F40030C8
:1017400008436860D4E908010843696821F474110A
:1017500008436860C6F86090FFF7DAFC044606E0CC
:1017600015E000BFFFF7D4FC001B022809D8286849
:101770008001F7D50BE000BFFFF7CAFC001B022871
:1017800002D90320BDE8F88F28688001F4D4002036
:10179000F8E70120F6E70000001002400000424296
:1017A00080044242E00100200070004070B5040057
:1017B00005D00025A56294F8510010B104E0012085
:1017C00070BD204600F034F8022084F851002068F3
:1017D000016821F040010160D4E901010843D4E926
:1017E00003121143084361690843218B01F400711E
:1017F0000843E1690843216A0843A16A0843216854
:101800000860A069042101EA1040616A0843216868
:1018100048602168E06A08612068C16921F40061BC
:10182000C1616565012084F85100002070BD000091
:1018300000B500680C4985B0884212D10B48816917
:1018400041F4805181618069694600F480500490C0
:10185000A020009002200190032003900448FFF78D
:101860006FFB05B000BD00000030014000100240D9
:10187000000801402DE9F84F044690F8500000267A
:10188000994617460D4601280DD04FF0010B84F8FC
:1018900050B0FFF73DFC804694F85100B246012855
:1018A00004D0022694E00220BDE8F88F002D7BD002
:1018B000002F79D0032084F85100C4F854A0256388
:1018C000A786E786C4F838A0A4F83CA0A4F83EA0F8
:1018D000C4F844A0C4F840A0A068B0F5004F04D1FB
:1018E0002068016841F48041016020680168490670
:1018F00003D4016841F040010160E068B0F5006F79
:10190000606804D030B3E08E012823D03EE010B1EF
:10191000E08E01281AD135F8021B206805E0206806
:101920008168890706D535F8021BC160E08E401E2C
:10193000E0860BE0B9F1000F34D0B9F1FF3F05D0DC
:10194000FFF7E6FBA0EB080149452BD2E08E00280B
:10195000E5D11EE0216815F8010B087306E0206848
:101960008168890706D515F8011B0173E08E401EBA
:10197000E0860BE0B9F1000F14D0B9F1FF3F05D0BC
:10198000FFF7C6FBA0EB080149450BD2E08E00280B
:10199000E5D14B46012202212046CDF8008000F01F
:1019A00069FC10B1032613E011E042464946204687
:1019B00000F050FC18B101262020606508E0A06806
:1019C00018B92068C16880680090606D00B1012678
:1019D00084F851B084F850A0304665E74FF0E0211C
:1019E0000428086903D020F004000861704740F023
:1019F0000400FAE7704710B5401EB0F1807F01D3B4
:101A0000012010BD4FF0E02460610F21601700F04D
:101A10004BFA0020A06107202061002010BD10B506
:101A2000FFF7E8FF10BD704770B502680446106804
:101A3000D168536910F00F0F50D003F0010501F485
:101A4000907635435DD0C20705D0CA0503D5E26B59
:101A500042F00102E263420705D5DA0703D0E26BE8
:101A600042F00202E263820705D5DA0703D0E26B97
:101A700042F00402E263020705D5DA0703D0E26B05
:101A800042F00802E263E26B002A33D0800604D5FC
:101A9000880602D5204600F0ADFC20684069E16B65
:101AA000C0F38010090700D428B3204600F094FC4E
:101AB0002068416949061AD5416921F04001416118
:101AC000606BA0B11B494163606BFFF7EDF9002823
:101AD00010D0606B416BBDE870400847830610D59D
:101AE0008B060ED52046BDE8704000F083BC204632
:101AF000FFF799FF70BD2046FFF795FF0020E063D8
:101B000070BD030606D50B0604D52046BDE870401F
:101B100000F074BD4006F3D54806F1D5D1682046E3
:101B200021F04001D160202184F8391000F0ABF899
:101B300070BD0000C923000870B5040004D094F8FB
:101B40003900002510B106E0012070BD84F838503E
:101B5000204600F023F8242084F839002068C1686A
:101B600021F40051C160204600F090FC206801691A
:101B700021F4904101612068416921F02A0141610D
:101B80002068C16841F40051C160E563202084F8F9
:101B9000390084F83A00002070BD000010B50068DC
:101BA000114986B088421DD11048816941F48041B5
:101BB000816180690E4C00F4804004904FF4007005
:101BC0000090022001900320039069462046FFF711
:101BD000B7F900212015CDE90001029169462046A0
:101BE000FFF7AEF906B010BD00380140001002400A
:101BF0000008014090F83A30202B22D1F9B1F2B11F
:101C000090F83830012B1CD081628285C28500217A
:101C1000C163222280F83A2080F838100168CA682F
:101C200042F48072CA6001684A6942F001024A6166
:101C30000068C16841F02001C160002070470120A8
:101C4000704702207047704790F83930202B18D128
:101C5000A9B1A2B190F83830012B12D00162828470
:101C6000C2840021C163212280F8392080F8381015
:101C70000068C16841F08001C16000207047012008
:101C80007047022070477047FEE700000C4800B51F
:101C9000816985B041F0080181618069694600F081
:101CA0000800049020200090002001900120029064
:101CB000022003900348FFF743F905B000BD000080
:101CC00000100240000C01402DE9F043254885B08A
:101CD000816941F010018161816901F01001049175
:101CE000816941F004018161816901F0040104917D
:101CF000816941F00801816180691B4F00F0080093
:101D00004FF400540490002221463846FFF7FBF9B7
:101D1000DFF85880002258214046FFF7F4F9DFF839
:101D20005090002220214846FFF7EDF9009401AAC7
:101D300001240025022682E8700069463846FFF734
:101D4000FFF858208DE8710069464046FFF7F8F823
:101D500020208DE8710069464846FFF7F1F805B08C
:101D6000BDE8F0830010024000100140000801406F
:101D7000000C01400E4810B5816986B041F00801A1
:101D8000816180690B4C00F0080004900122202141
:101D90002046FFF7B8F920200121CDE900010220FB
:101DA000CDE9021069462046FFF7CAF806B010BD1B
:101DB00000100240000C01400E4810B5816986B049
:101DC00041F00801816180690B4C00F0080004902B
:101DD000002220212046FFF796F920200121CDE99D
:101DE00000010220CDE9021069462046FFF7A8F85D
:101DF00006B010BD00100240000C0140114810B5A3
:101E00000F4901604FF48271416000218160C1601F
:101E10004FF400720161C0E905120822C0E90721F0
:101E2000416281620A21C162FFF7C0FC002805D02F
:101E3000BDE81040452104A000F035BC10BD0000F5
:101E400000300140E80100202E2E2F5372632F73C3
:101E500070692E63000000000D4810B50B49016049
:101E60004FF416514160002181600C22C160C0E92D
:101E700004128161C161FFF75FFE002805D0BDE853
:101E80001040442103A000F00EBC10BD00380140FA
:101E9000400200202E2E2F5372632F7573617274CF
:101EA0002E630000FEE770470907090E002806DAD6
:101EB00000F00F0000F1E02080F8141D704700F1E1
:101EC000E02080F800147047002208210148FFF745
:101ED0001AB900000008014070B5002404F1B000F8
:101EE000C0B2002100F0A6F90021084600F0A2F9D6
:101EF0000021102000F09EF900250121002000F0B3
:101F000099F96D1CEDB2802DF7D3641CE4B2082C56
:101F1000E4D370BD002210210148FFF7F4B800009F
:101F200000080140012210210148FFF7ECB8000031
:101F30000008014010B500218D2000F07BF9002140
:101F4000142000F077F90021BDE81040AF2000F028
:101F500071B910B500F07CF80021AE2000F06AF9EC
:101F60000021084600F066F90021102000F062F917
:101F70000021402000F05EF90021812000F05AF994
:101F80000021CF2000F056F90021A12000F052F9E5
:101F90000021C82000F04EF90021A62000F04AF9E7
:101FA0000021A82000F046F900213F2000F042F96E
:101FB0000021D32000F03EF90021084600F03AF954
:101FC0000021D52000F036F90021802000F032F900
:101FD0000021D92000F02EF90021F12000F02AF98B
:101FE0000021DA2000F026F90021122000F022F969
:101FF0000021DB2000F01EF90021402000F01AF93A
:102000000021202000F016F90021022000F012F932
:1020100000218D2000F00EF90021142000F00AF9B3
:102020000021A42000F006F90021A62000F002F90A
:102030000021AF2000F0FEF80021AF2000F0FAF8F8
:10204000FFF74AFF0021BDE81040084600F014B831
:1020500010B5084C002240212046FFF754F80A2012
:1020600000F0C2FB20460122BDE810404021FFF7EE
:102070004AB800000008014010B50446B031C8B2AB
:10208000002100F0D7F8102040EA1410002100F0E1
:10209000D1F804F00F00BDE8104040F0010000212D
:1020A00000F0C8B82DE9F041203A00240D468046E2
:1020B000D7B27F2803D900208D1C8046EDB2294677
:1020C000FFF7DAFF0F4E00BF04EB07100121305C71
:1020D00000F0B0F8641CE4B2082CF5D36D1CE9B232
:1020E0004046FFF7C9FF002404EB071030440121EC
:1020F000007A00F09FF8641CE4B2082CF4D3BDE829
:10210000F0810000203400082DE9F04115460E460C
:102110000746FFF7B1FF0F48002400EB85150121AA
:10212000285D00F087F8641CE4B2202CF7D3761CFD
:10213000F1B23846FFF7A0FF00242819012190F8DA
:10214000200000F077F8641CE4B2202CF5D3BDE841
:10215000F08100001000002070B5491CC9B2FFF7E3
:102160008BFF054D00240121285D00F063F8641CFD
:10217000E4B2042CF7D370BD1434000870B5491CC8
:10218000C9B2FFF779FF054D00240121285D00F059
:1021900051F8641CE4B2082CF7D370BD1834000861
:1021A0002DE9F0478046002608981D4691468A464C
:1021B0003446470821E0281B401EC1B20A2000F027
:1021C0000FFCB9FBF0F00A21B0FBF1F201FB1200A9
:1021D00026B9691E8C4201DA30B101263030C2B214
:1021E00007FB0480C0B203E007FB0480C0B22022DA
:1021F0005146FFF757FF641CE4B2AC42DBD3BDE8A5
:10220000F0872DE9F04117460E46044600250CE004
:1022100031462046FFF746FF0834E4B2782C02D955
:102220000024B61CF6B26D1CEDB27A5D002AEFD127
:10223000BDE8F08110B5044611B1FFF773FE01E06F
:10224000FFF768FEFFF740FE2046BDE81040FEF7AE
:102250001DBE704738B50B4600920446002280210F
:1022600000F008F8002804D0606D40F020006065A0
:10227000032038BD2DE9F0411D4617460E460446A1
:10228000DDF8188035E0681C33D02DB1FEF740FF33
:10229000A0EB0800A8422CD32068416821F0E0019F
:1022A00041606068B0F5827F0BD1A068B0F5004F47
:1022B00002D0B0F5806F04D12068016821F04001A0
:1022C0000160A06AB0F5005F0AD1206801684DF690
:1022D000FF72114001602068016841F40051016003
:1022E000012084F85100002084F850000320BDE84C
:1022F000F0812068806836EA000004D00020B842EF
:10230000C1D10020F3E70120F9E7704710B5FEF7CF
:1023100005FFBDE81040FFF782BB30B58FB0022546
:102320000120049000951020059000244FF46010C7
:10233000CDE9084007956846FFF7B6F800B1FEE71B
:102340000F20CDE90A054FF48060CDE90C40022151
:102350000AA80E94FEF7A2FF00B1FEE7FFF748F8C7
:102360004FF47A71B0FBF1F0FFF745FB0420FFF763
:1023700035FB00221146501EFEF75EFF0FB030BD48
:102380000D48016841F00101016041680B4A1140AC
:10239000416001680A4A11400160016821F480210E
:1023A0000160416821F4FE0141604FF41F0181602A
:1023B0000449C00308607047001002400000FFF8A5
:1023C000FFFFF6FE08ED00E010B5406A0021C18570
:1023D000C184FFF728FB10BD0168CA6822F490721F
:1023E000CA6001684A6922F001024A61202180F82E
:1023F0003A10704710B590F83A10222901D0022007
:1024000010BD8168B1F5805F11D0016900290168B4
:102410001FD0496801F07F03816A4A1C82620B70F9
:10242000C18D491E0904090CC18518D02BE0026931
:10243000816A002A0268526805D0D2B20A80816A95
:10244000491C8162ECE7C2F308020A80816A891C98
:10245000F7E74A68816A4B1C83620A70E0E701680B
:10246000CA6822F02002CA600168CA6822F4807239
:10247000CA6001684A6922F001024A61202180F89D
:102480003A10FFF7E0FB002010BD00002DE9F041FD
:10249000044600680169E26821F44051114301617A
:1024A0002169A0680843616908432168CA6841F24C
:1024B0000C639A430243CA6020684169A26921F40F
:1024C0004071114341614C4920686425322688429D
:1024D0003CD1FEF7A3FF00EBC00101EB00106168E7
:1024E0008900B0FBF1F7FEF799FF00EBC00101EBAB
:1024F00000106168B0468900B0FBF1F0B0FBF5F068
:102500006FF01801484307EB800106EB0110B0FBA8
:10251000F5F000F0F006FEF781FF00EBC00101EBE3
:10252000001061688900B0FBF1F0B0FBF5F006EB3C
:102530000016FEF773FF00EBC00101EB00106168AD
:102540008900B0FBF1F7FEF769FF3BE0FEF756FFAD
:1025500000EBC00101EB001061688900B0FBF1F7EE
:10256000FEF74CFF00EBC00101EB00106168B046C4
:102570008900B0FBF1F0B0FBF5F06FF018014843B3
:1025800007EB800106EB0110B0FBF5F000F0F00660
:10259000FEF734FF00EBC00101EB00106168890019
:1025A000B0FBF1F0B0FBF5F006EB0016FEF726FFEE
:1025B00000EBC00101EB001061688900B0FBF1F78E
:1025C000FEF71CFF00EBC00101EB00106168890001
:1025D000B0FBF1F0B0FBF5F06FF01801484307EBEA
:1025E000800108EB0110B0FBF5F0216800F00F004E
:1025F00030448860BDE8F0810038014090F839101F
:10260000212901D0022070478168B1F5805F016AFD
:102610000BD04A1C0262026809785160C18C491EC5
:102620000904090CC1840ED017E009880268C1F3BF
:102630000801516001690029016A02D0491C016248
:10264000ECE7891CFBE70168CA6822F08002CA60D7
:102650000068C16841F04001C1600020704700007F
:102660001CB50C48FFF7E0F901220B490948FFF7B8
:10267000C1FA0AA16A46D1E90001CDE900010021B1
:102680001020FFF7BEFD0448022102781020FFF75A
:1026900009FD1CBD40020020D0010020726561646C
:1026A00079000000FEE7FEE7490050EAC12018BFAC
:1026B00004204A0D18BF40F0010040F2FF72B2EB57
:1026C000515F08BF40F00200012808BF0520704795
:1026D0002DE9F0414F1E00EBC7010446D1E900018E
:1026E00015461E4637F006020DD02A463346FDF742
:1026F000DAFE7F1E04EBC703D3E90023FDF734FDA8
:1027000037F00602F1D1022F25D0042F13D0062F67
:1027100018BFBDE8F0812A463346FDF7C4FED4E970
:102720000A23FDF721FD2A463346FDF7BCFED4E916
:102730000823FDF719FD2A463346FDF7B4FED4E918
:102740000623FDF711FD2A463346FDF7ACFED4E91A
:102750000423FDF709FD2A463346FDF7A4FED4E91C
:102760000223FDF701FD2A463346FDF79CFED4E91E
:102770000023BDE8F041FDF7F7BC0000002213463E
:1027800010460149FDF701BF0000F03FFDF7ECBC2A
:102790000022134610461146FDF7F7BE40F2013203
:1027A00000204FF0E041FDF75FBF0000024A00202B
:1027B0001107FDF759BF000001FDFFFF02E008C847
:1027C000121F08C1002AFAD170477047002001E0AB
:1027D00001C1121F002AFBD17047000001490860A7
:1027E00070470000E401002010B5002142F2B73428
:1027F00005E0224602235B1C9342FCDB491C81421C
:10280000F7DB10BD002100EBC00000E0491C88424E
:10281000FCDC704790B0FEF789FCFFF77EFDFFF708
:1028200053FAFFF7EBFAFFF717FB002211462520BA
:10283000FEF702FD2520FEF7F3FCFFF709FCFFF78A
:1028400088FBFFF777FB012251035048FEF75BFC42
:102850004FA30DF1280C0FCB8CE80F000E220AA914
:102860004F48FFF7F1F94FA10722D1E90001CDE967
:102870000E010EA94A48FFF7E7F924224BA101A84F
:10288000FDF760FC212201A94548FFF7DDF941F27F
:102890008830FFF7A9FFFFF71FFB002211460C202D
:1028A000FFF732FC012200211D20FFF72DFC022240
:1028B00000212E20FFF728FC032200213F20FFF7F4
:1028C00023FC042200215020FFF71EFC05220021DA
:1028D0006120FFF719FC002203211046FFF714FCCA
:1028E000022203211420FFF70FFC03212820FFF709
:1028F00045FC012206210020FFF706FC02220621EA
:102900001420FFF701FC06212820FFF737FC304D8B
:10291000304E314FDFF8C4804FF47A7910244846A6
:10292000FFF770FFFDF794FF2868FDF7C4FC02462F
:10293000022303212D200094FFF732FC3068FDF7BD
:10294000BAFC0246022306212D200094FFF728FC42
:1029500003214120FFF700FC06214120FFF7FCFB8B
:102960003868FDF7A8FC02460223032144200094A6
:10297000FFF716FCD8F80000FDF79DFC0246022385
:10298000062144200094FFF70BFCC8E7001001402B
:1029900041542B43574D4F44453D3C323E000000CF
:1029A0004002002041542B525354000041542B4309
:1029B000575341503D3C544553543E2C3C303030ED
:1029C0003030303E2C3C313E2C3C303E000000008C
:1029D0000000002004000020080000200C0000205F
:1029E0000246012000E05043491EC9B2FBD27047A5
:1029F0002DE9F04D1D460C4698B0174621F00041D8
:102A000023F00043002814BF4FF0010C4FF0000CDE
:102A10000CEB440CFE4A0CEB02064FEA620C6645D6
:102A20002BD33E0018BF012606EB45061644F94A93
:102A3000964222D3F84A53EA070C02D0944205D1B9
:102A400048B918B000201146BDE8F08D002808BF35
:102A50004FF0000C01D04FF0010C0CEB440212F5CA
:102A6000001F0AD8002F14BF4FF0010C4FF0000CCC
:102A70000CEB450212F5001F07D918B03A462B4659
:102A80002146BDE8F04DFFF781BE0022DFF88CA3A0
:102A9000002CB8BF534526DADFF884C36345A8BFCE
:102AA000022220DADFF870C39C451CDCDFF874C317
:102AB0000CEB235CBCF1140F08DDCCF1340627FAD3
:102AC00006FC0CFA06F6BE420DD108E05FB9CCF167
:102AD000140623FA06FC0CFA06F69E4203D10CF00B
:102AE0000102C2F1020251EA000C19D1002D17DADD
:102AF000002C18BF022A01D0012A07D00220FFF7BC
:102B00006DFE18B0BDE8F04DFFF738BE0220FFF7AC
:102B100065FEFFF733FE18B081F00041BDE8F08D8F
:102B2000B7F1000C6CD1534525D104F1804212F568
:102B3000801201BF00280020B74918B008BFBDE8C7
:102B4000F08DB548884207DC002DA1BF60462946BC
:102B500018B0BDE8F08D07E0281E05DA80F00041CE
:102B600018B06046BDE8F08DAF497944D1E9000165
:102B700018B0BDE8F08DDFF8A0C2634525D1002D67
:102B80001FDA19B1514512D1D8B909E0002840F037
:102B9000EC82A24A214618B062F31E01BDE8F08D16
:102BA0000020214618B060F31E01BDE8F08D08DA60
:102BB00018B02346BDE8F04D024600206146FDF7FF
:102BC000E4BC18B02146BDE8F08D514518DAB5F1E6
:102BD000804F0DD0A5F1005CBCF1FF5C10D1B4F1C9
:102BE000000C0DDB18B06146BDE8F04D00F0ECBB09
:102BF000234618B00246BDE8F04D1946FDF753BC18
:102C0000060024F0004C3BD1D9B1514533D1002C02
:102C100006DD002DA1BF0020514618B0BDE8F08DA3
:102C2000002C01DD002D1BDB002C13DA002D11DB45
:102C3000012A4FF0000014BF78497C4918B0BDE864
:102C4000F08D022A18BF002C0AD0012A08D1002CCE
:102C500006DA0AE0002CB8BF002D11DA012A04D0F0
:102C6000002018B00146BDE8F08D18B000204FF0EC
:102C70000041BDE8F08DA1F14050B0F17F601AD065
:102C8000012000EBE47050EA020421D0624C521E95
:102C90004FF0000B104304BF4FF0000B644C65482D
:102CA00083427CDD644A654893421FDD884217DB1E
:102CB000002D25DB37E0002C00DA4AB1022A0CBFD8
:102CC00001204FF0FF3018B0BDE8F04DFDF7E3BC38
:102CD0000120FFF783FD18B0BDE8F04DFFF758BDA8
:102CE0004D4A8A4202DC002D0ADC1CE0814202DAF5
:102CF000002D18DA04E0484B994220DD002D12DD4A
:102D00000220FFF76BFDFFF749FD05460E46002246
:102D1000534658462146FDF7C6FB18B066F31E0120
:102D20002846BDE8F08D0220FFF758FDFFF73EFD75
:102D30000A46214618B062F31E01BDE8F08D00225C
:102D400030466146FDF7B1FA80460E466FF001024B
:102D5000FDF78AFC4FF05532394BFDF7A9FA424690
:102D60003346FDF7A0FB0022364BFDF7A1FA824661
:102D700042463346049110461946FDF794FB5246ED
:102D8000049BFDF790FB8A4600904FF0C0422E4B0B
:102D900040463146FDF787FB2C4A2B4B00E027E0ED
:102DA000CDE9060151460098FDF77DFB8246019171
:102DB000274A284B40463146FDF775FB5246019B9A
:102DC000FDF773FA82460B4602460591DDE90601DE
:102DD000FDF7CAF9DDE90623002688463046FDF7EF
:102DE00064FA5246059BFDF763FA024600F07EB98D
:102DF0000020B1F5801F07DA352230466146FDF725
:102E000033FC06466FF0340000EB215024E0000054
:102E1000FFFF1F00FFFF0F000000F03F0000F07FEA
:102E20000000404301FCFFFF420F00000000F0FFE4
:102E30000000F0BF0000E0410000F043FFFFEF3F63
:102E40005555D53F0000E03F4715F73FFE822B6503
:102E500044DF5DF80BAE543EA0F2FF300190C1F3A9
:102E6000130040F07F6141F040510291FE498842D9
:102E7000D8BF002004DDFD498142C8BF012001DD2B
:102E80000D9008E000200D900198401C01900298E0
:102E9000A0F5801002900299F54878440B910D99A5
:102EA00000EBC100D0E900230F9330460A920B9942
:102EB000FDF7FBF9CDE90601DDE90A2130460F9B5C
:102EC000FDF752F902460B460020EA49FDF75DFB8B
:102ED000059102460B460090DDE90601FDF7E3FA95
:102EE0001490E5488A464FF000087844029900683B
:102EF00012904FF0005040EA61010D980F9B01EBDA
:102F0000804000F5002109910A9A1298FDF7CDF949
:102F100032460B9BFDF7CCF942465346FDF7C3FA08
:102F20000646029140465146099B129AFDF7BBFAAC
:102F3000DDE90623FDF7BCF93246029BFDF7B5F942
:102F4000059B009AFDF7AFFA0091149A049053463E
:102F500010461946FDF7A7FA06460246C7480B4633
:102F6000029106217844FFF7B3FBCDE90510029BDF
:102F7000324610461946FDF796FADDE90532FDF7AF
:102F800092FA05910646534640461946149AFDF7B3
:102F9000EBF8009B049AFDF786FA3246059BFDF795
:102FA000E3F8CDE905104246534610461946FDF7B1
:102FB0007AFA0022B24B02910A90FDF7D5F8DDE9CA
:102FC0000532FDF7D1F80E464246AD4B4046FDF7BF
:102FD0006CF9029B0A9AFDF768F9DDE90532FDF705
:102FE00067F9424602910A90334610465146FDF772
:102FF0005AFACDE906015346149A02990A98FDF748
:1030000052FA8A4602903346424600990498FDF7E8
:103010004AFA5346029AFDF7A7F882460B46024643
:103020000591DDE90601FDF79FF8DDE906230020A3
:1030300088460646FDF739F95246059BFDF738F9F3
:10304000824609914FF060428E4B30464146FDF773
:103050002AFA049006918C4A8A4B50460999FDF74A
:1030600022FA82460291894A894B30464146FDF751
:103070001AFA5246029BFDF777F8864B7B440D9A6D
:1030800003EBC203D3E90023FDF76EF80E9007911E
:103090000198FDF700FB0591DDE9061382460E9AC3
:1030A0000498FDF761F87C4A7A440D9B02EBC30358
:1030B000D3E9002300930292FDF756F85246059B90
:1030C000FDF752F80026884652463046059BFDF72C
:1030D000ECF8009B029AFDF7E8F8069B049AFDF7CE
:1030E000E4F8079B0E9AFDF7E3F8024600200B4632
:1030F000029038462946FDF7D6F9824601912B46C3
:1031000038461946029AFDF7D0F832464346FDF795
:10311000CAF95246019BFDF727F807468A46324610
:10312000434629460298FDF7BEF905460E463A4643
:103130005346FDF719F8594A8846914221DBA8EB1E
:10314000020353EA000210D12A463346FDF7ADF8D8
:10315000CDE90401524A534B38465146FDF704F875
:10316000DDE90423FDF7A8FA21D20220FFF736FBA0
:10317000FFF714FB0A46214618B062F31E01BDE8B2
:10318000F08D494B28F000429A4210D3474A08EB91
:10319000020353EA00027FF4C6AD2A463346FDF728
:1031A00084F83A465346FDF787FA7FF6BCAD002215
:1031B000019228F000403E493E4A01EB20518242F4
:1031C00023DA481C4FF4801121FA00F040443A4AB7
:1031D000C0F30A517A44394BA1F2FF31CB4020EAC7
:1031E0000303C0F3130040F48010C1F11401C84080
:1031F00012680190B8F1000FBCBF40420190284610
:103200003146FDF752F805460E462A463346384603
:103210005146FCF7A9FF4FF000084246284B4046B4
:103220000591FDF740F9CDE90601264A264B4046B7
:103230000599FDF738F9009102902A463346404639
:103240000599FDF732F83A465346FDF731F81F4A23
:103250001F4BFDF728F9009B029AFCF785FF0746F4
:10326000884602460B4635E08E9803007AB60B007E
:103270008A0B00000000F03FC20B0000F00A0000C3
:103280000000084009C7EE3FFD033ADCF5015B147E
:10329000E02F3EBEC80900008C09000000009040ED
:1032A000FE822B654715973C00CC904000346F3F61
:1032B00001FCFFFF0000E03FD8080000FFFF0F0007
:1032C000432EE63F396CA80C615C20BEEF39FAFE54
:1032D000422EE63FDDE90601FCF746FFDDE9062365
:1032E00005460E46FCF7E1FF3A464346FCF7E0FF91
:1032F0000F462A463346009010461946FDF7D3F88C
:10330000824602462E4888460B4605217844FFF740
:10331000DFF952464346FDF7C6F82A463346FCF726
:10332000C7FF80468A463B4628463146009AFDF74D
:10333000BAF83B46009AFCF717FF0691009000226E
:103340004FF0804340465146FCF7AFFF0F460C90CC
:103350004246534628463146FDF7A5F83B460C9AAF
:10336000FDF713F9069B009AFCF79FFF2A463346A8
:10337000FCF79BFF0022134BFCF79AFF05460198D0
:103380000E4601EB00510815002810DC2846314696
:10339000019AFDF769F9FFF787F9042808BFFFF7DD
:1033A00005FA28463146019AFDF75EF905460B46B7
:1033B00018B02A4658462146BDE8F04DFDF773B8CF
:1033C000780700000000F03F2DE9F04106460F4667
:1033D000FDF79CF9041E0D4618BF0120284320F07C
:1033E0000040C0F17F6000F1E040C00F0ED0301C03
:1033F00018BF0120384320F00040C0F17F6000F189
:10340000E040C00F04BF0120FFF7E8F9204629463D
:10341000BDE8F081000030000098000000010000CD
:10342000000000000000000000000000000000009C
:10343000000000F800000000000000333000000031
:1034400000100C06100C0600000000000000000038
:1034500040C07840C0784000043F04043F040400AA
:10346000007088FC08300000001820FF211E0000BA
:10347000F008F000E018000000211C031E211E00CF
:1034800000F00888700000001E2123241927211055
:1034900010160E00000000000000000000000000F8
:1034A000000000E01804020000000007182040009F
:1034B00000020418E000000000402018070000008F
:1034C000404080F0804040000202010F01020200F3
:1034D000000000F0000000000101011F01010100D7
:1034E000000000000000000080B07000000000003C
:1034F00000000000000000000001010101010101C5
:10350000000000000000000000303000000000005B
:103510000000000080601804006018060100000030
:1035200000E010080810E000000F102020100F002D
:10353000001010F8000000000020203F20200000B4
:10354000007008080888700000302824222130000C
:1035500000300888884830000018202020110E0014
:103560000000C02010F8000000070424243F2400BD
:1035700000F80888880808000019212020110E0092
:1035800000E0108888180000000F112020110E00A4
:1035900000380808C83808000000003F000000009C
:1035A0000070880808887000001C222121221C005D
:1035B00000E010080810E0000000312222110F0086
:1035C000000000C0C000000000000030300000001B
:1035D000000000800000000000008060000000008B
:1035E00000008040201008000001020408102000A4
:1035F00040404040404040000404040404040400EF
:103600000008102040800000002010080402010083
:10361000007048080808F000000000303601000083
:10362000C030C828E810E0000718272423140B0036
:103630000000C038E0000000203C230202273820B0
:1036400008F8888888700000203F202020110E0094
:10365000C03008080808380007182020201008008B
:1036600008F808080810E000203F202020100F0074
:1036700008F88888E8081000203F20202320180040
:1036800008F88888E8081000203F200003000000A8
:10369000C03008080838000007182020221E020049
:1036A00008F808000008F808203F210101213F2008
:1036B000000808F8080800000020203F2020000033
:1036C00000000808F8080800C08080807F00000023
:1036D00008F888C028180800203F2001263820005C
:1036E00008F8080000000000203F202020203000C3
:1036F00008F8F800F8F80800203F003F003F2000DD
:1037000008F830C00008F808203F200007183F00E4
:10371000E01008080810E0000F10202020100F0013
:1037200008F808080808F000203F21010101000006
:10373000E01008080810E0000F18242438504F004B
:1037400008F8888888887000203F2000030C30200B
:1037500000708808080838000038202121221C0049
:10376000180808F8080818000000203F2000000092
:1037700008F808000008F808001F202020201F007B
:103780000878880000C83808000007380E010000DB
:10379000F80800F80008F800033C0700073C0300A5
:1037A000081868808068180820302C03032C30200B
:1037B0000838C800C83808000000203F200000007A
:1037C00010080808C83808002038262120201800D2
:1037D000000000FE020202000000007F40404000A6
:1037E000000C30C000000000000000010638C000DE
:1037F00000020202FE000000004040407F00000086
:1038000000000402020204000000000000000000AA
:1038100000000000000000008080808080808080A8
:103820000002020400000000000000000000000090
:1038300000008080808000000019242222223F2086
:1038400008F8008080000000003F112020110E00C9
:103850000000008080800000000E11202020110058
:10386000000000808088F800000E112020103F200A
:103870000000808080800000001F2222222213008E
:10388000008080F0888888180020203F20200000D9
:103890000000808080808000006B9494949360008E
:1038A00008F8008080800000203F210000203F2099
:1038B00000809898000000000020203F2020000099
:1038C000000000809898000000C08080807F000089
:1038D00008F8000080808000203F24022D30200066
:1038E000000808F8000000000020203F2020000011
:1038F0008080808080808000203F20003F20003F2B
:103900008080008080800000203F210000203F2038
:103910000000808080800000001F202020201F00E9
:10392000808000808000000080FFA12020110E0018
:103930000000008080808000000E112020A0FF8009
:10394000808080008080800020203F2120000100B6
:10395000000080808080800000332424242419000B
:10396000008080E0808000000000001F2020000018
:103970008080000000808000001F202020103F2059
:10398000808080000080808000010E3008060100E9
:1039900080800080008080800F300C030C300F008E
:1039A00000808000808080000020312E0E312000B9
:1039B000808080000080808080818E7018060100E9
:1039C00000808080808080000021302C2221300007
:1039D00000000000807C020200000000003F404028
:1039E00000000000FF00000000000000FF000000D9
:1039F0000002027C800000000040403F0000000008
:103A000000060101020204040000000000000000A2
:103A1000000000000000000001020304060708097E
:103A20000000000001020304000000000000F03F5D
:103A3000000000000000F83F00000000000000004F
:103A40000000004003B8E23F00000000000000005A
:103A500006D0CF43EBFD4C3E033333333333E33FE8
:103A6000FFAB6FDBB66DDB3F4D268F515555D53F14
:103A700001411DA96074D13F65DBC9934A86CD3FE2
:103A8000EF4E454A287ECA3F3E5555555555C53FD0
:103A900093BDBE166CC166BF2CDE25AF6A56113FC2
:103AA000F16BD2C541BDBBBED0A4BE726937663EC4
:103AB0000000000000000000D83A000800000020CC
:103AC000E8010000AE070008983B0008E80100206C
:103AD00098040000CC2700080110251060028C2BF0
:103AE000FE92010213FE180A04047E01407E424247
:103AF0007E020411427E403940493F091740080BBD
:103B0000104448507F40407F50484440212809FCE1
:103B1000242424FC25262408021104081010403017
:103B20008F80844C55252525554C80808080080E3B
:103B30001010D0FF905020504C434C502040601348
:103B4000040312FF080911414458414E60584720B0
:103B500049C01502F202FE1AF82A0913C01780475D
:103B6000300F1027041347807F158060F807151C5D
:103B7000E001060313E01E220112FF080911804034
:103B800020130C132040C001220320363619641183
:083B9000821044A24A04000067
:04000005080000ED02
:00000001FF
